:100000003DEF04F00000000000EF00F000000000F1
:0A0010000000000000000000F3D71C
:10001C0063C003F064C004F065C005F066C006F070
:10002C00000167A72CD003C002F00232029E0232FC
:10003C00029E0232029E050E016E04C000F00150B9
:10004C0004E000360090FF0FFBD761C0E1FF62C0F7
:10005C00E2FF00500210E66E614B622B050E016E42
:10006C0003C000F0015004E000360090FF0FFBD7F6
:10007C0061C0E1FF62C0E2FF00C0E6FF42D0050EA6
:10008C00006E05C002F0005004E00232029EFF0F29
:10009C00FBD706C000F0003600900036009000360A
:1000AC00009061C0E1FF62C0E2FF00500210E66EFA
:1000BC00614B622B05C000F00036009000360090BA
:1000CC0000360090E00E0016080E0010016E030EB4
:1000DC000514006E61C0E1FF62C0E2FF0050011028
:1000EC00E66E614B622B61C0E1FF62C0E2FF04C0AF
:1000FC00E6FF614B622B61C0E1FF62C0E2FF03C00F
:04010C00E6FF1200F8
:1001100055520AE054C06FFFE00E6E14016E01509C
:0E012000541801E0F9D702D054C06FFF12004E
:10012E00086A096A100E0C6E01340836093604503E
:10013E00085E0550D8A0053C095ED8B007D0045023
:10014E0008260550D8B0053C0926D8900036013651
:06015E000C2EEAD712008E
:1001640066D0000E0001616F0F0E626F55C063F020
:1001740056C064F057C065F058C066F059C067F0C7
:100184004BDF65D00001040E616F0F0E626F55C026
:1001940063F056C064F057C065F058C066F059C0AB
:1001A40067F03ADF54D00001080E616F0F0E626FE2
:1001B40055C063F056C064F057C065F058C066F08F
:1001C40059C067F029DF43D000010C0E616F0F0E98
:1001D400626F55C063F056C064F057C065F058C0F4
:1001E40066F059C067F018DF32D00001100E616F5D
:1001F4000F0E626F55C063F056C064F057C065F0CF
:1002040058C066F059C067F007DF21D00001140E12
:10021400616F0F0E626F55C063F056C064F057C033
:1002240065F058C066F059C067F0F6DE10D054503F
:10023400000A97E05450010AA5E05450020AB3E0C2
:100244005450030AC1E05450040ACFE0DFD712002F
:1002540054065506560657065806060E006E54C038
:1002640070FF005004E070367090FF0FFBD75550BC
:10027400701256C071FF713671907136719071367B
:1002840071905850711259A4718C59B0718E57C025
:0802940072FF59B2728C1200D6
:10029C00576A586A596A5A6A56A649D054C0E9FF37
:1002AC0055C0EAFFEECF02F0050E006E02C057F00B
:1002BC00000E586E596E5A6E005004E05732579E1D
:1002CC00FF0FFBD7596A5A6A57C058F0576A02C0D9
:1002DC0000F0003600900036009000360090000EC2
:1002EC00596E5A6E00505712000E5812000E58BE1E
:1002FC00FF0E596E5A6E000E596E5A6E544A552A9C
:10030C0054C0E9FF55C0EAFFEECF02F0050E016EB6
:10031C0002C000F0015004E00032009EFF0FFBD73A
:10032C0000505712000E581259125A1272D054C063
:10033C00E9FF55C0EAFFEECF01F0050E006E01C0DB
:10034C0004F0005004E004360490FF0FFBD754C0B7
:10035C00E9FF55C0EAFFEECF01F0030E006E01C0BD
:10036C0057F0000E586E596E5A6E005004E057321A
:10037C00579EFF0FFBD7596A5A6A57C058F0576AF5
:10038C00000E596E5A6E544A552A54C0E9FF55C096
:10039C00EAFFEECF00F0030E0014036EE00E001423
:1003AC00026E02C000F00032009E0032009E00324D
:1003BC00009E035000120450001200505712000E01
:1003CC00581259125A1259C05AF058C059F057C005
:1003DC0058F0576A544A552A54C0D9FF55C0DAFF11
:1003EC00DE505712000E581259125A1259C05AF0B8
:1003FC0058C059F057C058F0576A544A552A54C03F
:10040C00D9FF55C0DAFFDE505712000E58125912A0
:10041C005A1257C000F058C001F059C002F05AC02F
:04042C0003F01200C7
:0E043000ACB202D00000FCD754C0ADFF1200E9
:10043E005450000A11E1180E0001616F0F0E626F29
:10044E0055C063F056C064F057C065F058C066F0F2
:10045E0059C067F0DCDD10D000011C0E616F0F0E6D
:10046E00626F55C063F056C064F057C065F058C057
:0A047E0066F059C067F0CBDD1200F4
:1004880093949386800E546EFF0E556E3DDE47C0E2
:1004980054F048C055F049C056F04AC057F04BC018
:1004A80058F04CC059F0D2DE600E4C14606E100E3D
:1004B8004C14016E0150100AD8B4608460CF50FF0C
:1004C800546A556A566A576A586AF70E596EB3DF06
:1004D800010E546E556A566A576A586AF70E596E75
:1004E800AADF600E4C14006E9F0E0010016E0FD034
:1004F800F70E4D6EF70E4E6E11D0FF0E4D6EFF0EBD
:100508004E6E0CD0FF0E4D6EF70E4E6E07D001509A
:10051800DF0AEEE00150BF0AF0E0F4D7546A556AEA
:10052800566A576A586A4DC059F018DE010E546E63
:10053800556A566A576A586A4DC059F00FDE020E5E
:10054800546E556A566A576A586A4EC059F006DEA4
:10055800030E546E556A566A576A586A4EC059F067
:10056800FDDD040E546E556A566A576A586A4EC0C5
:1005780059F0F4DD050E546E556A566A576A586A82
:100588004EC059F0EBDD546AFF0E556EBDDD12000A
:100598000900F5CFE6FF0006FBE10106F9E11200CC
:1005A800300E436E040E446E540E456E000E466EB9
:1005B800FF0E2C6EFF0E2D6E000E2E6E000E2F6E8F
:1005C800FF0E306EFF0E316E000E326E000E336E6F
:1005D800FF0E346EFF0E356E000E366E000E376E4F
:1005E800AC8A900EAB6E948E949C9EAA03D0AECF2C
:0605F80000F0FBD7120029
:1005FE004A6A47C0E9FF48C0EAFFEECF49F04950CA
:10060E00000A0DE049C054F00CDF4A2A4A50472434
:10061E00E96E000E4820EA6EEECF49F0F0D71200D8
:10062E004DC0E1FF4EC0E2FFE66A60AE2BD0F10E88
:10063E006F16FF0E506EA49074AE0AD04DC0E9FF37
:10064E004EC0EAFF4DC0E1FF4EC0E2FFE686749E4B
:10065E0060A417D0070E6014006E4DC0E9FF4EC0A7
:10066E00EAFF4DC0E1FF4EC0E2FF0050EE124DC05A
:10067E00E9FF4EC0EAFF4DC0E1FF4EC0E2FF010EA2
:10068E00EE1635D00F0150AF30D0F10E6F160A0EA8
:10069E006F12506AA49274AC0AD04DC0E9FF4EC0DE
:1006AE00EAFF4DC0E1FF4EC0E2FFE686749C070EE6
:1006BE005015006E4DC0E9FF4EC0EAFF4DC0E1FF80
:1006CE004EC0E2FF0050EE124DC0E9FF4EC0EAFFF1
:1006DE00020EEE5C09E24DC0E9FF4EC0EAFF4DC0CE
:1006EE00E1FF4EC0E2FFE68E02D0006A76D00F0E1A
:1006FE006514006E00C051F04BC0E1FF4CC0E2FF2C
:10070E0000C0E6FF65AC09D04DC0E9FF4EC0EAFF60
:10071E004DC0E1FF4EC0E2FFE68C62A61DD04DC07B
:10072E00E9FF4EC0EAFF4DC0E1FF4EC0E2FFE68A90
:10073E00610E546E0F0E556EF70E566EA8DD47C045
:10074E00E1FF48C0E2FF00C0E6FF01C0E6FF02C0C5
:10075E00E6FF03C0E6FF13D0610E546E0F0E556E0A
:10076E00FF0E566E94DD47C0E1FF48C0E2FF00C0A9
:10077E00E6FF01C0E6FF02C0E6FF03C0E6FF4F6AD8
:10078E00660E526E0F0E536E51504F5C10E24F506C
:10079E004924E16E000E4A20E26E4F505224E96E5B
:1007AE00000E5320EA6EEECFE6FF4F2AEDD7F10E84
:1007BE006F16A4AE0AD04DC0E9FF4EC0EAFF4DC081
:1007CE00E1FF4EC0E2FFE688A49E505202E0609E1A
:0C07DE0002D00F01509FFF0E006E1200B1
:1007EA004B6A050E4B5C0AE24B504924E16E000E3F
:1007FA004A20E26E200EE66E4B2AF3D74B5049246C
:10080A00E16E000E4A20E26EE66A4B064B5049241E
:10081A004C6E000E4A204D6E0A0E046E000E056ED6
:10082A0047C000F048C001F07DDC08C000F009C0F4
:10083A0001F0300E00264CC0E1FF4DC0E2FF00C0BF
:10084A00E6FF0A0E046E000E056E47C000F048C0AF
:10085A0001F068DC00C047F001C048F0000E011842
:10086A0002E1000E001801E102D04B06CFD71200B8
:10087A00530E156E740E166E610E176E720E186E8A
:10088A00740E196E360E1A6E1B6A9B8CD38CD38A21
:10089A00D388B886B06ACF0EAF6EAC8480DE020E03
:1008AA000B6E040E0C6EBA0E0D6E0D2EFED70C2EAC
:1008BA00FCD70B2EFAD70000216A226A236AFC0EA3
:1008CA00226E040E216E476A260E486E496A4A6AEB
:1008DA004B6A040E4C6ED3DD800E546EFF0E556EBD
:1008EA0012DC546AFF0E556E0EDC150E476E000EB2
:1008FA00486E80DE0D0E546E96DD0A0E546E93DD40
:10090A00939281920B0E0B6E260E0C6E5D0E0D6E7F
:10091A000D2EFED70C2EFCD70B2EFAD700000000A6
:10092A0081820B0E0B6E260E0C6E5D0E0D6E0D2E59
:10093A00FED70C2EFCD70B2EFAD7000000008192AE
:10094A001D0E476E000E486E240E496E000E4A6E4A
:10095A00380E4B6E000E4C6E230E4D6E000E4E6E10
:10096A0061DE00C01CF0005214E024C047F0000E03
:10097A00486E390E496E000E4A6E32DF390E476EE6
:10098A00000E486E37DE0D0E546E4DDD0A0E546EA3
:06099A004ADDD6D7FFD7AD
:020000040030CA
:0D00010008191EFF8080FF0FC00FE00F40A8
:00000001FF
