:100000005CEF02F00000000000EF00F000000000D4
:0A0010000000000000000000F3D71C
:10001C0035C003F036C004F037C005F038C006F028
:10002C0039A62CD003C002F00232029E0232029E8C
:10003C000232029E050E016E04C000F0015004E075
:10004C0000360090FF0FFBD733C0E1FF34C0E2FF56
:10005C0000500210E66E334A342A050E016E03C0BE
:10006C0000F0015004E000360090FF0FFBD733C0C6
:10007C00E1FF34C0E2FF00C0E6FF42D0050E006E87
:10008C0005C002F0005004E00232029EFF0FFBD7C5
:10009C0006C000F00036009000360090003600904C
:1000AC0033C0E1FF34C0E2FF00500210E66E334A69
:1000BC00342A05C000F0003600900036009000365F
:1000CC000090E00E0016080E0010016E030E0514D1
:1000DC00006E33C0E1FF34C0E2FF00500110E66E49
:1000EC00334A342A33C0E1FF34C0E2FF04C0E6FFD8
:1000FC00334A342A33C0E1FF34C0E2FF03C0E6FFC9
:02010C001200DF
:10010E002E520AE02DC06FFFE00E6E14016E0150EC
:0E011E002D1801E0F9D702D02DC06FFF12009E
:10012C002D50000A10E1180E336E0F0E346E2EC0D7
:10013C0035F02FC036F030C037F031C038F032C057
:10014C0039F066DF0FD01C0E336E0F0E346E2EC0DE
:10015C0035F02FC036F030C037F031C038F032C037
:06016C0039F056DF12001D
:1001720060D0000E336E0F0E346E2EC035F02FC0DD
:1001820036F030C037F031C038F032C039F045DFD8
:1001920060D0040E336E0F0E346E2EC035F02FC0B9
:1001A20036F030C037F031C038F032C039F035DFC8
:1001B20050D0080E336E0F0E346E2EC035F02FC0A5
:1001C20036F030C037F031C038F032C039F025DFB8
:1001D20040D00C0E336E0F0E346E2EC035F02FC091
:1001E20036F030C037F031C038F032C039F015DFA8
:1001F20030D0100E336E0F0E346E2EC035F02FC07D
:1002020036F030C037F031C038F032C039F005DF97
:1002120020D0140E336E0F0E346E2EC035F02FC068
:1002220036F030C037F031C038F032C039F0F5DE88
:1002320010D02D50000A9DE02D50010AAAE02D5049
:10024200020AB7E02D50030AC4E02D50040AD1E09F
:04025200E0D71200DF
:0C0256000E0E0D6E0D2EFED700001200E3
:100262002D062E062F0630063106060E006E2DC014
:1002720070FF005004E070367090FF0FFBD72E50D5
:1002820070122FC071FF7136719071367190713694
:1002920071903150711232A4718C32B0718E30C0B3
:0802A20072FF32B2728C1200EF
:1002AA000F0140B704D0F10E6F166F860FD030B72A
:1002BA0005D0F10E6F16060E6F1208D020B704D0C3
:1002CA00F10E6F166F8402D0006A45D0030E29140E
:1002DA00606E29B610D0610E336E0F0E346E22C0D6
:1002EA0035F023C036F024C037F025C038F0F70EB9
:1002FA00396E8FDE0FD0610E336E0F0E346E22C050
:10030A0035F023C036F024C037F025C038F0FF0E90
:10031A00396E7FDE28C065FF29AC658C660E2B6EB0
:10032A000F0E2C6E2A6A28502A5C10E22A502B24BF
:10033A00E16E000E2C20E26E2A502624E96E000E91
:10034A002720EA6EEECFE6FF2A2AEDD76086F10E65
:08035A006F16FF0E006E120089
:1003620093949386800E2D6EFF0E2E6ECFDE22C0EA
:100372002DF023C02EF024C02FF025C030F026C06F
:1003820031F027C032F06CDF600E2714606E100E61
:100392002714016E0150100AD8B4608460CF50FF58
:1003A2002D6A2E6A2F6A306A316AF70E326EBDDE0E
:1003B200010E2D6E2E6A2F6A306A316AF70E326E86
:1003C200B4DE600E2714006E9F0E0010016E0FD077
:1003D200F70E286EF70E296E11D0FF0E286EFF0E53
:1003E200296E0CD0FF0E286EF70E296E07D0015031
:1003F200DF0AEEE00150BF0AF0E0F4D72D6A2E6A60
:100402002F6A306A316A28C032F0B2DE010E2D6ED8
:100412002E6A2F6A306A316A28C032F0A9DE020ED3
:100422002D6E2E6A2F6A306A316A29C032F0A0DE40
:10043200030E2D6E2E6A2F6A306A316A29C032F09D
:1004420097DE040E2D6E2E6A2F6A306A316A29C039
:1004520032F08EDE050E2D6E2E6A2F6A306A316AF8
:1004620029C032F085DE2D6AFF0E2E6E4FDE12009D
:100472000900F5CFE6FF0006FBE10106F9E11200F3
:10048200C26A070EC012C08E22C000F00036009071
:10049200003600900050C212C280DCDEC282C2A2CC
:1004A20001D0FDD7C4CF01F0006AC3500012000E84
:0604B2000112C2901200CD
:1004B8009B8CD38CD38AD388206A216A176AFC0E56
:1004C800216E040E206E226A260E236E246A256A87
:1004D800266A040E276E41DF800E2D6EFF0E2E6EEB
:1004E80012DE2D6AFF0E2E6E0EDEC198C19A928220
:1004F8009390939293988180818281980B0E0B6ED2
:10050800260E0C6E5D0E0D6E0D2EFED70C2EFCD732
:100518000B2EFAD7000000008190819281880B0E83
:100528000B6E260E0C6E5D0E0D6E0D2EFED70C2E6C
:10053800FCD70B2EFAD700000000818081828188C9
:10054800010E226E9ADF00C015F001C016F0010EF0
:10055800015C02E1F40E005C02E2819001D081802E
:1005680015C018F016C000F0016A00C019F0020E9C
:10057800226E000E236E000E246E000E256E180EDD
:10058800266E000E276E080E286E21C029F089DE1F
:10059800060E0B6E130E0C6EAD0E0D6E0D2EFED7E5
:1005A8000C2EFCD70B2EFAD700000000C9D7FFD7B6
:020000040030CA
:0D000100081F1EFF0081FF0FC00FE00F4021
:00000001FF
